:020000040800F2
:1000000058070020290200089F04000897040008F0
:100010009B040008E30200085F0E000800000000D7
:100020000000000000000000000000004909000876
:100030004103000800000000FD070008390A00081D
:10004000430200084302000843020008430200087C
:10005000430200084302000843020008430200086C
:10006000430200084302000843020008430200085C
:10007000430200084302000843020008430200084C
:10008000430200084302000843020008430200083C
:10009000430200084302000843020008430200082C
:1000A000430200084302000843020008430200081C
:1000B000430200084302000843020008430200080C
:1000C00043020008430200084302000843020008FC
:1000D00043020008430200084302000843020008EC
:1000E00043020008430200084302000843020008DC
:1000F00043020008430200084302000843020008CC
:1001000043020008430200084302000843020008BB
:100110002D0C0008430200084302000843020008B7
:10012000430200084302000843020008430200089B
:10013000430200084302000843020008430200088B
:10014000430200084302000843020008430200087B
:10015000430200084302000843020008430200086B
:10016000430200084302000843020008430200085B
:100170004302000843020008430200080000000098
:10018000430200084302000800F002F800F03CF8C7
:100190000AA090E8000C82448344AAF10107DA45E2
:1001A00001D100F031F8AFF2090EBAE80F0013F0F8
:1001B000010F18BFFB1A43F001031847C41A0000CF
:1001C000E41A0000103A24BF78C878C1FAD8520760
:1001D00024BF30C830C144BF04680C6070470000C1
:1001E0000023002400250026103A28BF78C1FBD840
:1001F000520728BF30C148BF0B6070471FB501F0E0
:1002000039FD1FBD10B510BD00F036F81146FFF7DF
:10021000F5FF00F0C3FF00F054F803B4FFF7F2FF5E
:1002200003BC00F057F80000094880470948004720
:10023000FEE7FEE7FEE7FEE7FEE7FEE7FEE7FEE796
:10024000FEE7FEE704480549054A064B70470000F3
:10025000550A0008890100085801002058070020AD
:100260005803002058030020704770477047000073
:1002700000487047F80000207546FFF7F9FFAE46CA
:1002800005006946534620F00700854618B020B5A2
:10029000FFF7D8FFBDE820404FF000064FF0000701
:1002A0004FF000084FF0000B21F00701AC46ACE81E
:1002B000C009ACE8C009ACE8C009ACE8C0098D468B
:1002C000704710B50446AFF300802046BDE81040EB
:1002D000FFF7A3BF01491820ABBEFEE726000200CE
:1002E000704700BFFEE7000010B500220268134B04
:1002F0001A40CC680B6823434C6923438C69234321
:10030000CC6923430C6A23434C6A23438C6A2343FE
:100310004C6B23438C6B23431A430260426922F0E7
:100320000702D1E90B3423431A4342610B6943604E
:100330004B6883608B68C36010BD00003F801CF079
:10034000704700001748406A17490860084600686F
:1003500016490968401A1649086008460068B0F551
:10036000004F05DD08460068A0F5803008600AE00F
:100370000F48006810F5004F05DA0D48006800F5D9
:1003800080300B490860084800680849086009483F
:10039000006807490968084406490860084600687B
:1003A00070470000000001402400002028000020C9
:1003B0002C00002030000020F0B50A460021002368
:1003C000002400BF3DE0012505FA01F3156805EAA8
:1003D00003049C4234D105684F000326BE40B54358
:1003E000056015794E00B5400668354305601579FE
:1003F000012D02D01579022D16D185684F000326F4
:10040000BE40B543856055794E00B540866835439A
:100410008560456801268E40B543456045689679FC
:100420008E40B6B235434560C5684F000326BE40D6
:10043000B543C560D5794E00B540C6683543C56043
:10044000491C1029BFD3F0BDF0B5002300244D078F
:10045000ED0E02FA05F3CE1000F1200555F82650F6
:100460004E07F70E0F26BE40B543CF1000F1200611
:1004700046F82750CE1000F1200555F8265045EAE1
:100480000304CE1000F1200545F82640F0BD41835D
:1004900070470183704700BFFEE700BFFEE770476B
:1004A00070B5002100230F22C4781CB3174C2468B8
:1004B00004F4E064C4F5E064C4F30721C1F104046A
:1004C000E3B20A4144789C40E1B28478144021436D
:1004D0000C07210E0E4C05786155047804F01F05B9
:1004E0000124AC4005786D11AD0005F1E025C5F89B
:1004F000004109E0047804F01F050124AC40054DDB
:100500000678761145F8264070BD00000CED00E03D
:1005100000E400E080E100E0002012490968086082
:100520009FED110B124880ED000B12480021016075
:1005300041608160C1609FED0C0B0F4880ED000BA6
:100540009FED090B0D4880ED000B0D4890ED040B5D
:10055000084880ED000B0A4890ED0A0B054880ED35
:10056000020B704764000020000000000000000043
:1005700058000020E8000020480000205000002023
:100580006800002010B52DED0A8B6C4890ED000B33
:1005900053EC102B6A4890ED000B51EC100B01F05E
:1005A0007FFA41EC180B674890ED061BB0EE410A4C
:1005B000F0EE610A53EC182B51EC100B01F03CF9F2
:1005C00041EC1C0B604890ED021BB0EE410AF0EECE
:1005D000610A53EC102B51EC1C0B01F061FA41EC59
:1005E0001B0B584890ED0C1BB0EE410AF0EE610A6F
:1005F00053EC102B51EC1B0B01F01EF941EC1A0BC4
:10060000504890ED001BB0EE410AF0EE610A53EC49
:10061000182B51EC100B01F00FF941EC1C0B4A4860
:1006200090ED001BB0EE410AF0EE610A53EC102B86
:1006300051EC1C0B00F072FE41EC1B0B53EC1A2B1F
:1006400000F06CFE41EC190B3E4890ED0E1BB0EE35
:10065000410AF0EE610A53EC102B51EC190B01F03A
:10066000E9F903D8374890ED0E0B15E0354890EDC9
:10067000101BB0EE410AF0EE610A53EC102B51EC66
:10068000190B01F09DF803D82E4890ED100B03E0F4
:10069000B0EE490AF0EE690A2C4880ED000B2948BB
:1006A00090ED121BB0EE410AF0EE610A53EC182BEC
:1006B00051EC100B01F0C0F841EC1C0B214890EDFF
:1006C000021BB0EE410AF0EE610A53EC102B51EC24
:1006D0001C0B01F0B1F841EC1B0B1B4890ED001B0B
:1006E000B0EE410AF0EE610A53EC102B51EC1B0BFB
:1006F00000F014FE144A03C2124890ED081BB0EE3D
:10070000410AF0EE610A53EC1A2B51EC100B01F088
:1007100093F841EC1B0B0C4890ED021BB0EE410A24
:10072000F0EE610A53EC102B51EC1B0B00F0F6FDC0
:10073000054AC2E90201BDEC0A8B10BD5000002041
:100740004800002068000020E80000205800002039
:1007500010B5044614F57A7F01DA194C04E0B4F5BB
:100760007A7F01DD4FF47A742CB94FF4806115481B
:10077000FFF78FFE17E0002C0ADD4FF4806111486F
:10078000FFF785FE4FF400410F48FFF780FE0AE0B7
:100790004FF480610B48FFF77AFE4FF400410A489E
:1007A000FFF777FE644209480068401C60434FF43D
:1007B0007A7190FBF1F405480830046010BD000028
:1007C00018FCFFFF000C0240000402402C180040FF
:1007D000084A1288521C4243074BB3FBF2F2511EE7
:1007E000B1F5803F01D34FF6FF71024A121D11602F
:1007F000704700002818004000BD01057047000048
:1008000029B1064A12680243044B1A6004E0034A05
:1008100012688243014B1A60704700003038024072
:1008200029B1064A12680243044B1A6004E0034AE5
:1008300012688243014B1A60704700004038024042
:1008400029B1064A12680243044B1A6004E0034AC5
:1008500012688243014B1A6070470000443802401E
:10086000F0B5002100220024022500260223324F89
:100870003F6807F00C0121B1042905D0082937D1C0
:1008800005E02E4F076036E02D4F076033E02A4F1A
:100890003F1F3F68C7F38056274F3F1F3F6807F051
:1008A0003F036EB1264FB7FBF3F7DFF88CC0ACF116
:1008B000040CDCF800C0CCF3881C07FB0CF40CE043
:1008C0001E4FB7FBF3F7DFF870C0ACF1040CDCF897
:1008D00000C0CCF3881C07FB0CF4174F3F1F3F6888
:1008E000C7F301477F1C7D00B4FBF5F7076002E00A
:1008F000124F076000BF00BF0F4F3F6807F0F001C5
:100900000909104F7A5C0768D74047600A4F3F6873
:1009100007F4E051890A0B4F7A5C4768D74087603B
:10092000054F3F6807F46041490B064F7A5C476802
:10093000D740C760F0BD0000083802400024F40032
:1009400000127A0034000020704700000CB500202F
:10095000019000903448006840F4803032490860CB
:1009600000BF3148006800F4003000900198401C3E
:100970000190009818B90198B0F5A04FF1D12A481C
:10098000006800F4003010B10120009001E0002068
:1009900000900098012846D123484030006840F07C
:1009A00080502149403108602048006840F44040B0
:1009B0001E4908601C48083000681B49083108605F
:1009C0000846006840F4004008600846006840F4AB
:1009D000A05008601648091F0860081F006840F012
:1009E0008070091F086000BF0F48006800F00070A9
:1009F0000028F9D040F205700E4908600A48083016
:100A0000006820F0030008490831086008460068C3
:100A100040F00200086000BF03480830006800F0A2
:100A20000C000828F8D10CBD0038024000700040CE
:100A300008544007003C0240012004490860044873
:100A40000068401C02490860704700001800002040
:100A50001400002010B51548006840F470001349D8
:100A600008601348006840F0010011490860002048
:100A70000F49083108600E4800680E4908400C49CB
:100A800008600D48091D0860081F006820F48020D8
:100A9000091F0860002006490C310860FFF756FF67
:100AA0004FF0006001498039086010BD88ED00E01A
:100AB00000380240FFFFF6FE1030002421B102880A
:100AC00042F00102028004E002884FF6FE731A40F1
:100AD00002807047F0B50C4615461E4600210022E4
:100AE00000230189028B038C4FF6F87739402143AC
:100AF0004FF6FC473A4040F201173A434FF6DD7794
:100B00003B404FF6FF7707EA06172F433B4301812F
:100B100002830384F0BD000070B50024002200238E
:100B2000058C4FF6FE7635400584028C8388048B55
:100B30004FF68F752C40B51E2C400D882C43751E2A
:100B40002A408D892A434D882A43104DA84202D05D
:100B50000F4DA84213D14FF6F7752A40CD892A438D
:100B60004FF6FB752A408D882A434FF6FF652B40D0
:100B70004FF6FF552B400D8A2B434D8A2B43838024
:100B800004838D684563028470BD0000000001404D
:100B9000000401400A460021018B4FF6F77319400B
:100BA000114301837047000000220288184B9842CD
:100BB0000ED0184B98420BD0B0F1804F08D0164B96
:100BC000984205D0154B984202D0154B984204D15B
:100BD0004FF68F731A404B881A43124B984207D036
:100BE000114B984204D04FF6FF431A400B891A4329
:100BF00002804B68C3620B880385054B984202D084
:100C0000044B984201D18B7A03860123838270477B
:100C100000000140000401400004004000080040C2
:100C2000000C0040001000400014004010B540F2DD
:100C30002551194800F054F868B3174800F00AF934
:100C400000F07F04612C0BD11448006840B91348B0
:100C500001680068401C114A1060114844540FE0BC
:100C60000F48007861280BD10C480068002807DD88
:100C70000A4801680068401C084A1060084844544B
:100C80000748C07D622806D104480068182802D1B0
:100C900000200249086010BD004C004020000020E8
:100CA000CE00002001F40072B2F5007F00D100BF39
:100CB000CA430280704721B1828942F40052828186
:100CC00004E082894DF6FF731A40828170471AB1A1
:100CD000838A0B43838202E0838A8B43838270473B
:100CE00070B50246002400230025002040F66A1655
:100CF000B14200D100BFC1F3421501F01F0301262C
:100D000006FA03F3012D02D19689334006E0022D45
:100D100002D1168A334001E0968A33400C12012634
:100D200006FA04F41688344013B10CB1012000E037
:100D3000002070BDF0B503460024002600250020E9
:100D400040F66A17B94200D100BF1846C1F34214F9
:100D500001F01F06012707FA06F5012C01D10C301E
:100D600004E0022C01D1103000E014301AB1076801
:100D70002F43076002E00768AF430760F0BD000043
:100D80002DE9FF4705460E460024A14600BFA046B8
:100D9000B08900B100BF2C8A24F44054F088044389
:100DA0002C82AC8941F20C608443B08831890843BD
:100DB000718908430443AC81AC8A24F44074B0893F
:100DC0000443AC826846FFF74BFD2048854202D0C1
:100DD0001F48854202D1DDF80C9001E0DDF8089053
:100DE000A88900F4004040B109EBC90000EB0910EC
:100DF00031684900B0FBF1F707E009EBC90000EBEF
:100E0000091031688900B0FBF1F76420B7FBF0F0FE
:100E100004012009642101FB1078A88900F4004036
:100E200040B1322000EBC800B0FBF1F000F0070049
:100E3000044308E0322000EB08106421B0FBF1F01D
:100E400000F00F0004432C81BDE8FF870010014033
:100E50000014014001468888C0F30800704700BFB5
:100E6000FEE7000010B5044601211020FFF7D8FC72
:100E700042F2CF000C490885601EC862002048621B
:100E800001208882002008820120088000BF0648D7
:100E9000008A0028FBD00020034908800021102090
:100EA000FFF7BEFC10BD00000010004000B59FB071
:100EB00001214020FFF7B4FC01210220FFF7A0FC34
:100EC00001210820FFF79CFC4FF480401D90022078
:100ED0008DF8780003208DF8790000208DF87A00D5
:100EE00001208DF87B001DA9A248FFF765FA0922B1
:100EF0000E21A048FFF7A8FA4FF400401D900120F2
:100F00008DF8780003208DF8790000208DF87A00A4
:100F10008DF87B001DA99748FFF74EFA4FF48060CB
:100F20001D901DA99448FFF747FA40F2E7301B9047
:100F30002920ADF868000020ADF87000ADF86A0017
:100F40001AA98E48FFF730FE6020ADF8540001204A
:100F5000ADF8560000201790ADF8600015A987483D
:100F6000FFF7DAFD08218548FFF714FE01218348C9
:100F7000FFF7A4FD01210802FFF752FC01210846FA
:100F8000FFF73EFC4FF480401D9002208DF8780062
:100F900003208DF8790000208DF87A0001208DF86B
:100FA0007B001DA97648FFF707FA02220E2174483C
:100FB000FFF74AFA40F2E7301B902920ADF86800AD
:100FC0000020ADF87000ADF86A001AA96D48FFF76F
:100FD000EBFD6020ADF854000120ADF85600002074
:100FE0001790ADF8600015A96648FFF795FD082138
:100FF0006448FFF7CFFD01216248FFF75FFD012143
:101000000846FFF71DFC01211020FFF7F9FB4FF404
:1010100020601D9002208DF8780003208DF8790063
:1010200000208DF87A0001208DF87B001DA956481C
:10103000FFF7C2F9012209215348FFF705FA0122FF
:101040000B215148FFF700FA00231A4603214F48AD
:10105000FFF740FD00204D49486201214B48FFF752
:101060002DFD01210846FFF7CBFB0121C804FFF746
:10107000D7FB01214805FFF7C3FB01201D9002208B
:101080008DF8780000208DF87A0001208DF87B0023
:1010900002208DF879001DA93948FFF78DF902204B
:1010A0001D908DF878001DA93548FFF785F90822B5
:1010B00000213348FFF7C8F9082201213048FFF723
:1010C000C3F94FF4E13011900020ADF84800ADF8BD
:1010D0004A00ADF84C00ADF850000C20ADF84E00C1
:1010E00011A92B48FFF74CFE01212948FFF7E3FD2A
:1010F000012280212648FFF7EAFD4FF000600290B0
:101100002348001D039023480490402005900020B0
:1011100007904FF480600890002009900A900B908F
:101120004FF400300C9000200D9001200E90002014
:101130000F90109002A91848FFF7D6F840F22551F9
:101140001348FFF7AFFD012240F225511048FFF789
:10115000F1FD34208DF8040000208DF805008DF895
:10116000060001208DF8070001A8FFF799F91FB0CC
:1011700000BD000000040240000C024000180040C6
:10118000000002400020004000100240000001402A
:10119000004C0040B8000020706002402DED048B30
:1011A0003F480068C822B0FBF2F1481EB0F1807FD2
:1011B00000D31BE0481E4FF0E022506150170F2271
:1011C000002804DB13071C0E364B1C5406E01307E3
:1011D0001D0E354B00F00F04241F1D5500BF0020CD
:1011E0004FF0E02290610720106100BF4FF47A7049
:1011F000FFF738FEFFF75AFE4FF47A70FFF7E8FA70
:101200000020FFF7A5FAFFF787F99FED280B294883
:1012100080ED000B43E028480068E8B30020264931
:101220000860FFF78FF8044600F0B3FA41EC190BA1
:101230009FED220B53EC102B00F024F941EC180B1E
:101240009FED1A0B53EC102B00F0F6FA1D4A03C267
:1012500000F046F89FED1C0B53EC102B1C4890ED52
:10126000000B51EC100B00F0E7FA41EC190B9FED6D
:10127000190B53EC102B00F005F941EC180B00F0A2
:1012800059FA00B2154908800846B0F900000880F4
:101290000846B0F9000000E001E0FFF759FABAE7AC
:1012A0000000002000E400E018ED00E00000000075
:1012B0000080764048000020180000200000000058
:1012C00000208C40500000200000000000408F40B3
:1012D0005800002000000000000028401E000020F0
:1012E00010B50A4801780078401C084A107021B1F6
:1012F00007A009490968086010BDFFF743F90348D2
:101300000078401E0149087000BFF5E71C0000206E
:101310004F76657272756E006400002010B591EA18
:10132000030F48BF83F0004300F1C283841A71EBBE
:10133000030C05D2121943EB0C03001B61EB0C01EB
:10134000DFF824E14FEA1154A4EB135C1EEA430FCB
:1013500018BF9EEA445F73D023EA0E03DCF1200E2F
:1013600021EA045143F4801332D322FA0CFE10EB2D
:101370000E0023FA0CFE41EB0E01CCF1200E03FA15
:101380000EFE10EB0E0051F10001B1F5801FCCF103
:10139000200E32D201EB045112FA0EF2BDE81040D9
:1013A00058BF7047401C38BF5FEA420218BF704701
:1013B000002814BF20F0010041F100014FEA410371
:1013C00013F5001F38BF7047A1F1C04100F02CBBDE
:1013D000012A43EB0302ACF1200CDCF11F0E32BFFB
:1013E0004FF0000E23FA0CF310EB030041EB045115
:1013F000B4EB115FD0D0A1EB045101F58011490885
:101400005FEA300001EB04510ED350F1000038BF09
:1014100012FA0EFE08D1BDE81040C9E7401C38BFE3
:101420005FEA4202CAD1C3E7BDE810404FEA410378
:1014300013F5001F38BF7047A1F1C04100F0F4BAA6
:101440009EEA445F08D011EA5E0FBDE8104004BF79
:1014500001F0004100207047BDE8104070B500F079
:1014600095FA00BF64FBBE3E0000E0FF491058BF84
:10147000C1F140415B1058BFC3F140438B42EFF3D1
:10148000008070472DE9C04130B4DFF8A0C23CEACB
:10149000111418BF3CEA131400F0EC8081EA030534
:1014A0001CEA111444EAD57418BF1CEA131500F0A5
:1014B000C780A4EB05044FF0004545EAC12145EA89
:1014C000C32341EA505143EA525304F17F749942D5
:1014D00004F500344FEAC0204FEAC22208BF904210
:1014E00000F09C804FEA13650FF24016765D4FEADC
:1014F000134506FB05F7C7F1807706FB07F74FEAB0
:10150000D737A7FB03687642C8F58038A7FB06CE1D
:1015100038BFA8F1010807FB08E64FF0000EA6FB54
:10152000028CE6FB03CEDCF1000CCEF1004E38BF9E
:10153000AEF1010EA6FB0C584FF000074FF000056E
:10154000E6FB0E87A1FB08C6A0FB07CE16EB0E0636
:1015500045F10005E1FB076515F1E04E7EBFA4F5FE
:1015600080345FEA46066D4116F1800745F10005BB
:101570004FEA17274FEA066647EA0567A6F1DE46F7
:10158000B6F1805F4FEA15251FD9384624F0010CCB
:1015900005EBC471BCF1FE6F01EB0C1102D8F0BC7D
:1015A000BDE8008124425CBF01F5801E9EEAC47F35
:1015B00002D4F0BCBDE80081244238D4F0BCA1F1D3
:1015C000C041BDE8004100F02FBA4FEAD22242EA02
:1015D00043524FEAD323A7FB02864FEAD02040EACA
:1015E000415007FB03661EEA0E0F4FEAD12105FBAF
:1015F000026658BFA6EB0056B6EB00564FEA520EF5
:101600004EEAC37E18EB0E0E56EB530EBDD518EB0B
:1016100002085E417F1C55F10005B6E74FF48015C6
:101620004FF000074FF000064FF00008ADE7F0BCA8
:101630004FF0000001F1C04101F00041BDE8008120
:1016400011EA0C1F0CEA131500D00CE013EA0C1F72
:1016500000F025804FF00000F0BC81EA030101F0AA
:101660000041BDE80081F0BCBDE8004181EA030112
:1016700000F0DAB9F0BCBDE8004170B500F086F9C1
:10168000097EFC3E00F007B881EA03014FF000003C
:1016900001F00041704781EA030100F0C5B9F0BCD8
:1016A000BDE800414FF0000021497047FFFDFBF904
:1016B000F7F5F4F2F0EEEDEBE9E8E6E4E3E1E0DE85
:1016C000DDDBDAD8D7D5D4D3D1D0CFCDCCCBCAC8F7
:1016D000C7C6C5C4C2C1C0BFBEBDBCBBBAB9B8B71E
:1016E000B6B5B4B3B2B1B0AFAEADACABAAA9A8A811
:1016F000A7A6A5A4A3A3A2A1A09F9F9E9D9C9C9BDF
:101700009A99999897979695959493939291919089
:101710008F8F8E8E8D8C8C8B8B8A8989888887871A
:101720008685858484838382828181800000FF078F
:101730000000F87F4FEA41034FEA5353A3F580635B
:10174000D3F11E03C8BFD3F1210C0CDD4FF00042D2
:1017500042EAC12242EA505232FA03FC8CEAE17CAE
:10176000ACEBE1707047102BC4BF0020704703F54D
:10177000787CBCF1FF3F04D06FF0004282EA210088
:10178000704770B500F002F949922480002070473C
:10179000F2E710F0004248BF4042B0FA80F310FA7E
:1017A00003F10AD0C3F11D0303F580634FEA4150F2
:1017B00002EB035202EBD12170474FF0000070475B
:1017C00051EA030C17D41CF5801F58BFBCF5801FCD
:1017D00000F10680994218BF704708BF90427047D9
:1017E00007D711F5801F58BF13F5801F19D49942F0
:1017F0007047894270471CF5801F08D5BCF5801FD3
:10180000F7D58B4218BF704708BF824270474FF42C
:10181000001C1CEB410F38BF1CEB430F01D28B4265
:10182000704770B500F0B2F8922449004FF00051B3
:101830004FF08053FFF71ABEDFF848C170B51CEABD
:10184000111E1EBF1CEA13159EEA0C0F95EA0C0F21
:1018500000F06F8081EA030423EA4C134EEAD47E41
:1018600021EA4C1141F4801143F48013AE44A1FBF2
:10187000024CA0FB0365AEF17F7E361955EB0C05DB
:10188000A1FB034C4CF10003A0FB021C16EB0C0661
:10189000654153F10003094218BF46F0010613F4F5
:1018A000007F0BD14FEA03314FEA0530340341EAA0
:1018B000155140EA16506FF003020AE04FEAC321C7
:1018C0004FEAC520F40241EA555140EA56506FF004
:1018D000020202EB2E4201EB025585EACE710AD0DC
:1018E0005FEA440C18BF24F0004450F1000041F1BD
:1018F000000120EAD47040F2FE7C624500D270BD47
:10190000A84214BF4FF080444FF04044002E08BF5F
:101910000024BEF1806FA8BFA1F1C041BDE87040B6
:1019200080F282804FF0000001F1C04101F00041DF
:1019300070479EEA0C0F0CEA131518BF95EA0C0FBE
:1019400006D04FF0000081EA030E0EF0004170BD9A
:1019500000F01CF88900013E00F007B800F009B85B
:101960004FEA430C5FEA5C5C08D081EA030100F0B7
:101970005BB84FEA410C5FEA5C5CF6D14FF00000C7
:10198000014970470000FF070000F87F0EF1020ECA
:101990002EF0030E5EF8046B364205D4012A43EBA9
:1019A000030515F5001F12D8012841EB010C1CF5A9
:1019B000001F0CD80ED14FEAD17C15F5001F0CEB9F
:1019C0004C0C0CF1020C08BF4CEBD37C04E04FF044
:1019D000080C01E04FEAD37C0CEB4C0526FA05F627
:1019E00006F00706B6F1040C06D20EEB860CBDE835
:1019F00070404CF0010C6047DFE80CF0090B02026C
:101A00004FF000414FF00000A1F5002170BD1946D4
:101A10001046012851EB010418BFD4F5001484BF0F
:101A2000002001F0004170BD0808A0F500114FEA48
:101A30003101704753EA010C17D41CF5801F58BFC1
:101A4000BCF5801F00F106808B4218BF704708BFAD
:101A50008242704707D713F5801F58BF11F5801FCA
:101A600019D48B4270479B4270471CF5801F08D5E4
:101A7000BCF5801FF7D5994218BF704708BF904248
:101A800070474FF4001C1CEB430F38BF1CEB410F99
:101A900001D2994270470FB40CBC03BCFFF7C1BE22
:101AA00010B591EA030F48BF83F000433FF53EAC09
:101AB000841A71EB030C07D212198CF0004C43EB23
:101AC0000C03001B61EB0C01DFF8A4E14FEA115499
:101AD000A4EB135C1EEA430F18BF9EEA445F00F0BC
:101AE000B08023EA6E03524221EA0451C3EB6E0335
:101AF00038BF5B1EDCF1200E25D322FA0CFE10EB62
:101B00000E0043FA0CFE41EB0E01CCF1200E03FA5D
:101B10000EFE10EB0E0051F10001CCF1200E29D485
:101B200012FA0EF201EB0451BDE8104058BF7047A5
:101B3000401C1CBFB2F1004F704700280CBF491C6D
:101B400020F00100704712EB020E43EB030218BFB6
:101B50004FF0010E4EEA4202ACF1200CDCF11E0EF9
:101B600054D943FA0CFE10EB0E0051F1FF31CCF1C9
:101B70001E0ED5D50EF1010E12FA0EFE404141EBBC
:101B8000010101EB445C5FEA5C5C10D910EBDE7094
:101B900001EB045138BFBEF1004FBDE8104018BF43
:101BA000704700280CBF491C20F00100704730D25C
:101BB0004FEAD42C11F5001124F400641BD0B1FAC3
:101BC00081F20B3AA41AA41ED2F12003914030FAFC
:101BD00003F31943904001EBCC71002C01EB04514D
:101BE000BDE81040A8BF704701F1C0414FF00000B0
:101BF00001F000417047B0FA80F310FA03F100D110
:101C000010BDE41A173C4805C90AE4E701EB04518A
:101C100010BD491001EB0451BDE810404FEA3000FF
:101C200002E04FF0000170474A0008BF0042F8D0C0
:101C3000B2F5001F28BF704701F000414FF00000CF
:101C400070479EEA445F07D011EA5E0FBDE810407E
:101C500004BF002100207047BDE8104070B5FFF7B9
:101C600095FE00BF40DFF63E83F00041104670470E
:101C70000000E0FF4FF04070E1EE100A70470000F6
:101C8000A01C000800000020B8000000C4010008EB
:101C9000581D0008B8000020A0060000E001000860
:101CA000007A030A000000000000000001020304A3
:101CB0000607080900000000000000000000000006
:101CC0000000000000000000000000000000000014
:101CD00000000000000000000102030401020304F0
:101CE00006070809000000000000000000000000D6
:101CF00000000000000000000000000000000000E4
:101D00000000000060000020000000000000F03F24
:101D10007B14AE47E17A743F000000000000000031
:101D200000000000000000007B14AE47E17A743F21
:101D3000000000000000000000000000000059400A
:101D4000000000000000284000000000000028C043
:081D5000000000000000F03F5C
:040000050800018965
:00000001FF
